S01400004C45445F626C696E6B696E672E737265638E
S11300000C942A000C9434000C9434000C943400A6
S11300100C9434000C9434000C9434000C9434008C
S11300200C9434000C9434000C9434000C9434007C
S11300300C9434000C9434000C9434000C9434006C
S11300400C9434000C9434000C9434000C9434005C
S11300500C94340011241FBECFE5D8E0DEBFCDBF21
S11300600E9436000C9452000C94000087B3806107
S113007087BB88B3806188BB2FEF83ED90E3215069
S113008080409040E1F700C0000088B38F7E88BBB9
S11300902FEF83ED90E3215080409040E1F700C0C2
S10B00A00000E7CFF894FFCF44
S9030000FC
