:100000000C942A000C9434000C9434000C943400AA
:100010000C9434000C9434000C9434000C94340090
:100020000C9434000C9434000C9434000C94340080
:100030000C9434000C9434000C9434000C94340070
:100040000C9434000C9434000C9434000C94340060
:100050000C94340011241FBECFE5D8E0DEBFCDBF25
:100060000E9436000C945B000C94000087B3877FDD
:1000700087BB87B38F7D87BB88B3886088BB88B315
:10008000806288BB87B3816087BB87B3806287BB90
:10009000B39904C088B3816088BB03C088B38E7FE6
:1000A00088BBB59904C088B3806288BBF1CF88B3A0
:0A00B0008F7D88BBEDCFF894FFCFE1
:00000001FF
