S01700004763634170706C69636174696F6E312E737265635B
S11300000C942A000C9434000C9434000C943400A6
S11300100C9434000C9434000C9434000C9434008C
S11300200C9434000C9434000C9434000C9434007C
S11300300C9434000C9434000C9434000C9434006C
S11300400C9434000C9434000C9434000C9434005C
S11300500C94340011241FBECFE5D8E0DEBFCDBF21
S11300600E9436000C944E000C94000081E087BB83
S113007081E088BB2FEF83ED90E3215080409040D6
S1130080E1F700C0000018BA2FEF83ED90E3215090
S113009080409040E1F700C00000EACFF894FFCF21
S9030000FC
