S00F0000496E74727570742E737265631F
S11300000C942A000C943E000C944D000C94340083
S11300100C9434000C9434000C9434000C9434008C
S11300200C9434000C9434000C9434000C9434007C
S11300300C9434000C9434000C9434000C9434006C
S11300400C9434000C9434000C9434000C9434005C
S11300500C94340011241FBECFE5D8E0DEBFCDBF21
S11300600E9436000C945C000C9400008CE082BB6F
S113007080EC8BBF8FEF8ABB7894FFCF1F920F92D7
S11300800FB60F9211248F938BB381608BBB8F912A
S11300900F900FBE0F901F9018951F920F920FB6DE
S11300A00F9211248F938BB38E7F8BBB8F910F9004
S10F00B00FBE0F901F901895F894FFCF1E
S9030000FC
