:100000000C942A000C9434000C9434000C943400AA
:100010000C9434000C9434000C9434000C94340090
:100020000C9434000C9434000C9434000C94340080
:100030000C9434000C9434000C9434000C94340070
:100040000C9434000C9434000C9434000C94340060
:100050000C94340011241FBECFE5D8E0DEBFCDBF25
:100060000E94A1000C94D0000C94000088BB82B3C5
:100070008B7F82BB82B3886082BB8FE99FE0019750
:10008000F1F700C0000082B3877F82BB089588BB70
:1000900082B3846082BB82B3886082BB8FE99FE0B9
:1000A0000197F1F700C0000082B3877F82BB0895FB
:1000B00088E30E9436002FEF89E698E121508040C6
:1000C0009040E1F700C0000082E00E9436002FEF70
:1000D00089E698E1215080409040E1F700C000009F
:1000E00081E00E9436002FEF89E698E121508040A0
:1000F0009040E1F700C000008CE00E9436002FEF36
:1001000089E698E1215080409040E1F700C000006E
:1001100086E00E9436002FEF89E698E1215080406A
:100120009040E1F700C0000080E80E9436002FEF09
:1001300089E698E1215080409040E1F700C000003E
:1001400008958FEF87BB81B3846081BB81B38860E2
:1001500081BB0E94580088E40E94470081E40E940D
:10016000470082E50E94470085E40E94470080E244
:100170000E9447008BE40E94470082E50E944700EE
:1001800089E40E94470083E50E94470088E40E94BA
:1001900047008EE40E94470081E40E944700FFCFA1
:0401A000F894FFCF01
:00000001FF
